{
  "_format": "hh-sol-artifact-1",
  "contractName": "PredictionMarketToken",
  "sourceName": "contracts/PredictionMarketToken.sol",
  "abi": [
    {
      "inputs": [
        {
          "internalType": "string",
          "name": "name",
          "type": "string"
        },
        {
          "internalType": "string",
          "name": "symbol",
          "type": "string"
        },
        {
          "internalType": "address",
          "name": "_liquidityProvider",
          "type": "address"
        },
        {
          "internalType": "uint256",
          "name": "initialSupply",
          "type": "uint256"
        },
        {
          "internalType": "uint256",
          "name": "lockedAmount",
          "type": "uint256"
        }
      ],
      "stateMutability": "nonpayable",
      "type": "constructor"
    },
    {
      "inputs": [
        {
          "internalType": "address",
          "name": "spender",
          "type": "address"
        },
        {
          "internalType": "uint256",
          "name": "allowance",
          "type": "uint256"
        },
        {
          "internalType": "uint256",
          "name": "needed",
          "type": "uint256"
        }
      ],
      "name": "ERC20InsufficientAllowance",
      "type": "error"
    },
    {
      "inputs": [
        {
          "internalType": "address",
          "name": "sender",
          "type": "address"
        },
        {
          "internalType": "uint256",
          "name": "balance",
          "type": "uint256"
        },
        {
          "internalType": "uint256",
          "name": "needed",
          "type": "uint256"
        }
      ],
      "name": "ERC20InsufficientBalance",
      "type": "error"
    },
    {
      "inputs": [
        {
          "internalType": "address",
          "name": "approver",
          "type": "address"
        }
      ],
      "name": "ERC20InvalidApprover",
      "type": "error"
    },
    {
      "inputs": [
        {
          "internalType": "address",
          "name": "receiver",
          "type": "address"
        }
      ],
      "name": "ERC20InvalidReceiver",
      "type": "error"
    },
    {
      "inputs": [
        {
          "internalType": "address",
          "name": "sender",
          "type": "address"
        }
      ],
      "name": "ERC20InvalidSender",
      "type": "error"
    },
    {
      "inputs": [
        {
          "internalType": "address",
          "name": "spender",
          "type": "address"
        }
      ],
      "name": "ERC20InvalidSpender",
      "type": "error"
    },
    {
      "inputs": [],
      "name": "PredictionMarketToken__LiquidityProviderCantTransfer",
      "type": "error"
    },
    {
      "inputs": [],
      "name": "PredictionMarketToken__OnlyPredictionMarketCanBurn",
      "type": "error"
    },
    {
      "inputs": [],
      "name": "PredictionMarketToken__OnlyPredictionMarketCanMint",
      "type": "error"
    },
    {
      "anonymous": false,
      "inputs": [
        {
          "indexed": true,
          "internalType": "address",
          "name": "owner",
          "type": "address"
        },
        {
          "indexed": true,
          "internalType": "address",
          "name": "spender",
          "type": "address"
        },
        {
          "indexed": false,
          "internalType": "uint256",
          "name": "value",
          "type": "uint256"
        }
      ],
      "name": "Approval",
      "type": "event"
    },
    {
      "anonymous": false,
      "inputs": [
        {
          "indexed": true,
          "internalType": "address",
          "name": "from",
          "type": "address"
        },
        {
          "indexed": true,
          "internalType": "address",
          "name": "to",
          "type": "address"
        },
        {
          "indexed": false,
          "internalType": "uint256",
          "name": "value",
          "type": "uint256"
        }
      ],
      "name": "Transfer",
      "type": "event"
    },
    {
      "inputs": [
        {
          "internalType": "address",
          "name": "owner",
          "type": "address"
        },
        {
          "internalType": "address",
          "name": "spender",
          "type": "address"
        }
      ],
      "name": "allowance",
      "outputs": [
        {
          "internalType": "uint256",
          "name": "",
          "type": "uint256"
        }
      ],
      "stateMutability": "view",
      "type": "function"
    },
    {
      "inputs": [
        {
          "internalType": "address",
          "name": "spender",
          "type": "address"
        },
        {
          "internalType": "uint256",
          "name": "value",
          "type": "uint256"
        }
      ],
      "name": "approve",
      "outputs": [
        {
          "internalType": "bool",
          "name": "",
          "type": "bool"
        }
      ],
      "stateMutability": "nonpayable",
      "type": "function"
    },
    {
      "inputs": [
        {
          "internalType": "address",
          "name": "account",
          "type": "address"
        }
      ],
      "name": "balanceOf",
      "outputs": [
        {
          "internalType": "uint256",
          "name": "",
          "type": "uint256"
        }
      ],
      "stateMutability": "view",
      "type": "function"
    },
    {
      "inputs": [
        {
          "internalType": "address",
          "name": "from",
          "type": "address"
        },
        {
          "internalType": "uint256",
          "name": "amount",
          "type": "uint256"
        }
      ],
      "name": "burn",
      "outputs": [],
      "stateMutability": "nonpayable",
      "type": "function"
    },
    {
      "inputs": [],
      "name": "decimals",
      "outputs": [
        {
          "internalType": "uint8",
          "name": "",
          "type": "uint8"
        }
      ],
      "stateMutability": "view",
      "type": "function"
    },
    {
      "inputs": [],
      "name": "liquidityProvider",
      "outputs": [
        {
          "internalType": "address",
          "name": "",
          "type": "address"
        }
      ],
      "stateMutability": "view",
      "type": "function"
    },
    {
      "inputs": [
        {
          "internalType": "address",
          "name": "to",
          "type": "address"
        },
        {
          "internalType": "uint256",
          "name": "amount",
          "type": "uint256"
        }
      ],
      "name": "mint",
      "outputs": [],
      "stateMutability": "nonpayable",
      "type": "function"
    },
    {
      "inputs": [],
      "name": "name",
      "outputs": [
        {
          "internalType": "string",
          "name": "",
          "type": "string"
        }
      ],
      "stateMutability": "view",
      "type": "function"
    },
    {
      "inputs": [],
      "name": "predictionMarket",
      "outputs": [
        {
          "internalType": "address",
          "name": "",
          "type": "address"
        }
      ],
      "stateMutability": "view",
      "type": "function"
    },
    {
      "inputs": [],
      "name": "symbol",
      "outputs": [
        {
          "internalType": "string",
          "name": "",
          "type": "string"
        }
      ],
      "stateMutability": "view",
      "type": "function"
    },
    {
      "inputs": [],
      "name": "totalSupply",
      "outputs": [
        {
          "internalType": "uint256",
          "name": "",
          "type": "uint256"
        }
      ],
      "stateMutability": "view",
      "type": "function"
    },
    {
      "inputs": [
        {
          "internalType": "address",
          "name": "to",
          "type": "address"
        },
        {
          "internalType": "uint256",
          "name": "amount",
          "type": "uint256"
        }
      ],
      "name": "transfer",
      "outputs": [
        {
          "internalType": "bool",
          "name": "",
          "type": "bool"
        }
      ],
      "stateMutability": "nonpayable",
      "type": "function"
    },
    {
      "inputs": [
        {
          "internalType": "address",
          "name": "from",
          "type": "address"
        },
        {
          "internalType": "address",
          "name": "to",
          "type": "address"
        },
        {
          "internalType": "uint256",
          "name": "amount",
          "type": "uint256"
        }
      ],
      "name": "transferFrom",
      "outputs": [
        {
          "internalType": "bool",
          "name": "",
          "type": "bool"
        }
      ],
      "stateMutability": "nonpayable",
      "type": "function"
    }
  ],
  "bytecode": "0x608060405234801561001057600080fd5b50604051610e0b380380610e0b83398101604081905261002f916102c5565b8484600361003d83826103ea565b50600461004a82826103ea565b505060058054336001600160a01b031991821617909155600680549091166001600160a01b0386161790555080156100865761008683826100a3565b6100993361009483856104be565b6100a3565b50505050506104ea565b6001600160a01b0382166100d25760405163ec442f0560e01b8152600060048201526024015b60405180910390fd5b6100de600083836100e2565b5050565b6001600160a01b03831661010d57806002600082825461010291906104d7565b9091555061017f9050565b6001600160a01b038316600090815260208190526040902054818110156101605760405163391434e360e21b81526001600160a01b038516600482015260248101829052604481018390526064016100c9565b6001600160a01b03841660009081526020819052604090209082900390555b6001600160a01b03821661019b576002805482900390556101ba565b6001600160a01b03821660009081526020819052604090208054820190555b816001600160a01b0316836001600160a01b03167fddf252ad1be2c89b69c2b068fc378daa952ba7f163c4a11628f55a4df523b3ef836040516101ff91815260200190565b60405180910390a3505050565b634e487b7160e01b600052604160045260246000fd5b600082601f83011261023357600080fd5b81516001600160401b0381111561024c5761024c61020c565b604051601f8201601f19908116603f011681016001600160401b038111828210171561027a5761027a61020c565b60405281815283820160200185101561029257600080fd5b60005b828110156102b157602081860181015183830182015201610295565b506000918101602001919091529392505050565b600080600080600060a086880312156102dd57600080fd5b85516001600160401b038111156102f357600080fd5b6102ff88828901610222565b602088015190965090506001600160401b0381111561031d57600080fd5b61032988828901610222565b604088015190955090506001600160a01b038116811461034857600080fd5b6060870151608090970151959894975095949392505050565b600181811c9082168061037557607f821691505b60208210810361039557634e487b7160e01b600052602260045260246000fd5b50919050565b601f8211156103e557806000526020600020601f840160051c810160208510156103c25750805b601f840160051c820191505b818110156103e257600081556001016103ce565b50505b505050565b81516001600160401b038111156104035761040361020c565b610417816104118454610361565b8461039b565b6020601f82116001811461044b57600083156104335750848201515b600019600385901b1c1916600184901b1784556103e2565b600084815260208120601f198516915b8281101561047b578785015182556020948501946001909201910161045b565b50848210156104995786840151600019600387901b60f8161c191681555b50505050600190811b01905550565b634e487b7160e01b600052601160045260246000fd5b818103818111156104d1576104d16104a8565b92915050565b808201808211156104d1576104d16104a8565b610912806104f96000396000f3fe608060405234801561001057600080fd5b50600436106100cf5760003560e01c80635b8bec551161008c5780639dc29fac116100665780639dc29fac146101ba578063a9059cbb146101cd578063dd62ed3e146101e0578063def114b61461021957600080fd5b80635b8bec551461015e57806370a082311461018957806395d89b41146101b257600080fd5b806306fdde03146100d4578063095ea7b3146100f257806318160ddd1461011557806323b872dd14610127578063313ce5671461013a57806340c10f1914610149575b600080fd5b6100dc61022c565b6040516100e99190610762565b60405180910390f35b6101056101003660046107cc565b6102be565b60405190151581526020016100e9565b6002545b6040519081526020016100e9565b6101056101353660046107f6565b6102d8565b604051601281526020016100e9565b61015c6101573660046107cc565b61031d565b005b600654610171906001600160a01b031681565b6040516001600160a01b0390911681526020016100e9565b610119610197366004610833565b6001600160a01b031660009081526020819052604090205490565b6100dc610356565b61015c6101c83660046107cc565b610365565b6101056101db3660046107cc565b61039a565b6101196101ee36600461084e565b6001600160a01b03918216600090815260016020908152604080832093909416825291909152205490565b600554610171906001600160a01b031681565b60606003805461023b90610881565b80601f016020809104026020016040519081016040528092919081815260200182805461026790610881565b80156102b45780601f10610289576101008083540402835291602001916102b4565b820191906000526020600020905b81548152906001019060200180831161029757829003601f168201915b5050505050905090565b6000336102cc8185856103d9565b60019150505b92915050565b6006546000906001600160a01b039081169085160361030a5760405163ec0511b360e01b815260040160405180910390fd5b6103158484846103eb565b949350505050565b6005546001600160a01b031633146103485760405163294c9fd360e01b815260040160405180910390fd5b610352828261040f565b5050565b60606004805461023b90610881565b6005546001600160a01b0316331461039057604051631e29ea2960e11b815260040160405180910390fd5b610352828261044a565b6006546000906001600160a01b031633036103c85760405163ec0511b360e01b815260040160405180910390fd5b6103d28383610480565b9392505050565b6103e6838383600161048e565b505050565b6000336103f9858285610564565b6104048585856105dd565b506001949350505050565b6001600160a01b03821661043e5760405163ec442f0560e01b8152600060048201526024015b60405180910390fd5b61035260008383610638565b6001600160a01b03821661047457604051634b637e8f60e11b815260006004820152602401610435565b61035282600083610638565b6000336102cc8185856105dd565b6001600160a01b0384166104b85760405163e602df0560e01b815260006004820152602401610435565b6001600160a01b0383166104e257604051634a1406b160e11b815260006004820152602401610435565b6001600160a01b038085166000908152600160209081526040808320938716835292905220829055801561055e57826001600160a01b0316846001600160a01b03167f8c5be1e5ebec7d5bd14f71427d1e84f3dd0314c0f7b2291e5b200ac8c7c3b9258460405161055591815260200190565b60405180910390a35b50505050565b6001600160a01b0383811660009081526001602090815260408083209386168352929052205460001981101561055e57818110156105ce57604051637dc7a0d960e11b81526001600160a01b03841660048201526024810182905260448101839052606401610435565b61055e8484848403600061048e565b6001600160a01b03831661060757604051634b637e8f60e11b815260006004820152602401610435565b6001600160a01b0382166106315760405163ec442f0560e01b815260006004820152602401610435565b6103e68383835b6001600160a01b03831661066357806002600082825461065891906108bb565b909155506106d59050565b6001600160a01b038316600090815260208190526040902054818110156106b65760405163391434e360e21b81526001600160a01b03851660048201526024810182905260448101839052606401610435565b6001600160a01b03841660009081526020819052604090209082900390555b6001600160a01b0382166106f157600280548290039055610710565b6001600160a01b03821660009081526020819052604090208054820190555b816001600160a01b0316836001600160a01b03167fddf252ad1be2c89b69c2b068fc378daa952ba7f163c4a11628f55a4df523b3ef8360405161075591815260200190565b60405180910390a3505050565b602081526000825180602084015260005b818110156107905760208186018101516040868401015201610773565b506000604082850101526040601f19601f83011684010191505092915050565b80356001600160a01b03811681146107c757600080fd5b919050565b600080604083850312156107df57600080fd5b6107e8836107b0565b946020939093013593505050565b60008060006060848603121561080b57600080fd5b610814846107b0565b9250610822602085016107b0565b929592945050506040919091013590565b60006020828403121561084557600080fd5b6103d2826107b0565b6000806040838503121561086157600080fd5b61086a836107b0565b9150610878602084016107b0565b90509250929050565b600181811c9082168061089557607f821691505b6020821081036108b557634e487b7160e01b600052602260045260246000fd5b50919050565b808201808211156102d257634e487b7160e01b600052601160045260246000fdfea2646970667358221220501bcdf7b4b33f568be5524935db154e8670745729d58ef107931b34254a1e8564736f6c634300081e0033",
  "linkReferences": {},
  "deployedLinkReferences": {}
}