{
  "_format": "hh-sol-artifact-1",
  "contractName": "PredictionMarket",
  "sourceName": "contracts/PredictionMarket.sol",
  "abi": [
    {
      "inputs": [
        {
          "internalType": "address",
          "name": "_liquidityProvider",
          "type": "address"
        },
        {
          "internalType": "address",
          "name": "_oracle",
          "type": "address"
        },
        {
          "internalType": "string",
          "name": "_question",
          "type": "string"
        },
        {
          "internalType": "uint256",
          "name": "_initialTokenValue",
          "type": "uint256"
        },
        {
          "internalType": "uint8",
          "name": "_initialYesProbability",
          "type": "uint8"
        },
        {
          "internalType": "uint8",
          "name": "_percentageToLock",
          "type": "uint8"
        },
        {
          "internalType": "address",
          "name": "_paymentToken",
          "type": "address"
        },
        {
          "internalType": "address",
          "name": "_forwarderAddress",
          "type": "address"
        },
        {
          "internalType": "uint256",
          "name": "_initialLiquidityAmount",
          "type": "uint256"
        }
      ],
      "stateMutability": "nonpayable",
      "type": "constructor"
    },
    {
      "inputs": [
        {
          "internalType": "address",
          "name": "received",
          "type": "address"
        },
        {
          "internalType": "address",
          "name": "expected",
          "type": "address"
        }
      ],
      "name": "InvalidAuthor",
      "type": "error"
    },
    {
      "inputs": [],
      "name": "InvalidForwarderAddress",
      "type": "error"
    },
    {
      "inputs": [
        {
          "internalType": "address",
          "name": "sender",
          "type": "address"
        },
        {
          "internalType": "address",
          "name": "expected",
          "type": "address"
        }
      ],
      "name": "InvalidSender",
      "type": "error"
    },
    {
      "inputs": [
        {
          "internalType": "bytes32",
          "name": "received",
          "type": "bytes32"
        },
        {
          "internalType": "bytes32",
          "name": "expected",
          "type": "bytes32"
        }
      ],
      "name": "InvalidWorkflowId",
      "type": "error"
    },
    {
      "inputs": [
        {
          "internalType": "bytes10",
          "name": "received",
          "type": "bytes10"
        },
        {
          "internalType": "bytes10",
          "name": "expected",
          "type": "bytes10"
        }
      ],
      "name": "InvalidWorkflowName",
      "type": "error"
    },
    {
      "inputs": [
        {
          "internalType": "address",
          "name": "owner",
          "type": "address"
        }
      ],
      "name": "OwnableInvalidOwner",
      "type": "error"
    },
    {
      "inputs": [
        {
          "internalType": "address",
          "name": "account",
          "type": "address"
        }
      ],
      "name": "OwnableUnauthorizedAccount",
      "type": "error"
    },
    {
      "inputs": [],
      "name": "PredictionMarket__AmountMustBeGreaterThanZero",
      "type": "error"
    },
    {
      "inputs": [
        {
          "internalType": "uint256",
          "name": "_tradingAmount",
          "type": "uint256"
        },
        {
          "internalType": "uint256",
          "name": "_allowance",
          "type": "uint256"
        }
      ],
      "name": "PredictionMarket__InsufficientAllowance",
      "type": "error"
    },
    {
      "inputs": [
        {
          "internalType": "uint256",
          "name": "_tradingAmount",
          "type": "uint256"
        },
        {
          "internalType": "uint256",
          "name": "_userBalance",
          "type": "uint256"
        }
      ],
      "name": "PredictionMarket__InsufficientBalance",
      "type": "error"
    },
    {
      "inputs": [],
      "name": "PredictionMarket__InsufficientLiquidity",
      "type": "error"
    },
    {
      "inputs": [
        {
          "internalType": "enum PredictionMarket.Outcome",
          "name": "_outcome",
          "type": "uint8"
        },
        {
          "internalType": "uint256",
          "name": "_amountToken",
          "type": "uint256"
        }
      ],
      "name": "PredictionMarket__InsufficientTokenReserve",
      "type": "error"
    },
    {
      "inputs": [],
      "name": "PredictionMarket__InsufficientWinningTokens",
      "type": "error"
    },
    {
      "inputs": [],
      "name": "PredictionMarket__InvalidPercentageToLock",
      "type": "error"
    },
    {
      "inputs": [],
      "name": "PredictionMarket__InvalidProbability",
      "type": "error"
    },
    {
      "inputs": [],
      "name": "PredictionMarket__MustProvideInitialLiquidity",
      "type": "error"
    },
    {
      "inputs": [],
      "name": "PredictionMarket__OnlyOracleCanReport",
      "type": "error"
    },
    {
      "inputs": [],
      "name": "PredictionMarket__OwnerCannotCall",
      "type": "error"
    },
    {
      "inputs": [],
      "name": "PredictionMarket__PaymentTransferFailed",
      "type": "error"
    },
    {
      "inputs": [],
      "name": "PredictionMarket__PredictionAlreadyReported",
      "type": "error"
    },
    {
      "inputs": [],
      "name": "PredictionMarket__PredictionNotReported",
      "type": "error"
    },
    {
      "inputs": [
        {
          "internalType": "address",
          "name": "token",
          "type": "address"
        }
      ],
      "name": "SafeERC20FailedOperation",
      "type": "error"
    },
    {
      "inputs": [],
      "name": "WorkflowNameRequiresAuthorValidation",
      "type": "error"
    },
    {
      "anonymous": false,
      "inputs": [
        {
          "indexed": true,
          "internalType": "address",
          "name": "previousAuthor",
          "type": "address"
        },
        {
          "indexed": true,
          "internalType": "address",
          "name": "newAuthor",
          "type": "address"
        }
      ],
      "name": "ExpectedAuthorUpdated",
      "type": "event"
    },
    {
      "anonymous": false,
      "inputs": [
        {
          "indexed": true,
          "internalType": "bytes32",
          "name": "previousId",
          "type": "bytes32"
        },
        {
          "indexed": true,
          "internalType": "bytes32",
          "name": "newId",
          "type": "bytes32"
        }
      ],
      "name": "ExpectedWorkflowIdUpdated",
      "type": "event"
    },
    {
      "anonymous": false,
      "inputs": [
        {
          "indexed": true,
          "internalType": "bytes10",
          "name": "previousName",
          "type": "bytes10"
        },
        {
          "indexed": true,
          "internalType": "bytes10",
          "name": "newName",
          "type": "bytes10"
        }
      ],
      "name": "ExpectedWorkflowNameUpdated",
      "type": "event"
    },
    {
      "anonymous": false,
      "inputs": [
        {
          "indexed": true,
          "internalType": "address",
          "name": "previousForwarder",
          "type": "address"
        },
        {
          "indexed": true,
          "internalType": "address",
          "name": "newForwarder",
          "type": "address"
        }
      ],
      "name": "ForwarderAddressUpdated",
      "type": "event"
    },
    {
      "anonymous": false,
      "inputs": [
        {
          "indexed": true,
          "internalType": "address",
          "name": "provider",
          "type": "address"
        },
        {
          "indexed": false,
          "internalType": "uint256",
          "name": "amount",
          "type": "uint256"
        },
        {
          "indexed": false,
          "internalType": "uint256",
          "name": "tokensAmount",
          "type": "uint256"
        }
      ],
      "name": "LiquidityAdded",
      "type": "event"
    },
    {
      "anonymous": false,
      "inputs": [
        {
          "indexed": true,
          "internalType": "address",
          "name": "provider",
          "type": "address"
        },
        {
          "indexed": false,
          "internalType": "uint256",
          "name": "amount",
          "type": "uint256"
        },
        {
          "indexed": false,
          "internalType": "uint256",
          "name": "tokensAmount",
          "type": "uint256"
        }
      ],
      "name": "LiquidityRemoved",
      "type": "event"
    },
    {
      "anonymous": false,
      "inputs": [
        {
          "indexed": true,
          "internalType": "address",
          "name": "oracle",
          "type": "address"
        },
        {
          "indexed": false,
          "internalType": "enum PredictionMarket.Outcome",
          "name": "winningOutcome",
          "type": "uint8"
        },
        {
          "indexed": false,
          "internalType": "address",
          "name": "winningToken",
          "type": "address"
        }
      ],
      "name": "MarketReported",
      "type": "event"
    },
    {
      "anonymous": false,
      "inputs": [
        {
          "indexed": true,
          "internalType": "address",
          "name": "resolver",
          "type": "address"
        },
        {
          "indexed": false,
          "internalType": "uint256",
          "name": "payoutAmount",
          "type": "uint256"
        }
      ],
      "name": "MarketResolved",
      "type": "event"
    },
    {
      "anonymous": false,
      "inputs": [
        {
          "indexed": true,
          "internalType": "address",
          "name": "previousOwner",
          "type": "address"
        },
        {
          "indexed": true,
          "internalType": "address",
          "name": "newOwner",
          "type": "address"
        }
      ],
      "name": "OwnershipTransferred",
      "type": "event"
    },
    {
      "anonymous": false,
      "inputs": [
        {
          "indexed": false,
          "internalType": "string",
          "name": "message",
          "type": "string"
        }
      ],
      "name": "SecurityWarning",
      "type": "event"
    },
    {
      "anonymous": false,
      "inputs": [
        {
          "indexed": true,
          "internalType": "uint256",
          "name": "marketId",
          "type": "uint256"
        },
        {
          "indexed": false,
          "internalType": "string",
          "name": "question",
          "type": "string"
        }
      ],
      "name": "SettlementRequested",
      "type": "event"
    },
    {
      "anonymous": false,
      "inputs": [
        {
          "indexed": true,
          "internalType": "address",
          "name": "buyer",
          "type": "address"
        },
        {
          "indexed": false,
          "internalType": "enum PredictionMarket.Outcome",
          "name": "outcome",
          "type": "uint8"
        },
        {
          "indexed": false,
          "internalType": "uint256",
          "name": "amount",
          "type": "uint256"
        },
        {
          "indexed": false,
          "internalType": "uint256",
          "name": "paymentAmount",
          "type": "uint256"
        }
      ],
      "name": "TokensPurchased",
      "type": "event"
    },
    {
      "anonymous": false,
      "inputs": [
        {
          "indexed": true,
          "internalType": "address",
          "name": "seller",
          "type": "address"
        },
        {
          "indexed": false,
          "internalType": "enum PredictionMarket.Outcome",
          "name": "outcome",
          "type": "uint8"
        },
        {
          "indexed": false,
          "internalType": "uint256",
          "name": "amount",
          "type": "uint256"
        },
        {
          "indexed": false,
          "internalType": "uint256",
          "name": "paymentAmount",
          "type": "uint256"
        }
      ],
      "name": "TokensSold",
      "type": "event"
    },
    {
      "anonymous": false,
      "inputs": [
        {
          "indexed": true,
          "internalType": "address",
          "name": "redeemer",
          "type": "address"
        },
        {
          "indexed": false,
          "internalType": "uint256",
          "name": "amount",
          "type": "uint256"
        },
        {
          "indexed": false,
          "internalType": "uint256",
          "name": "payoutAmount",
          "type": "uint256"
        }
      ],
      "name": "WinningTokensRedeemed",
      "type": "event"
    },
    {
      "inputs": [
        {
          "internalType": "uint256",
          "name": "_amount",
          "type": "uint256"
        }
      ],
      "name": "addLiquidity",
      "outputs": [],
      "stateMutability": "nonpayable",
      "type": "function"
    },
    {
      "inputs": [
        {
          "internalType": "enum PredictionMarket.Outcome",
          "name": "_outcome",
          "type": "uint8"
        },
        {
          "internalType": "uint256",
          "name": "_paymentAmount",
          "type": "uint256"
        },
        {
          "internalType": "uint256",
          "name": "_minTokensOut",
          "type": "uint256"
        }
      ],
      "name": "buyTokens",
      "outputs": [],
      "stateMutability": "nonpayable",
      "type": "function"
    },
    {
      "inputs": [
        {
          "internalType": "enum PredictionMarket.Outcome",
          "name": "_outcome",
          "type": "uint8"
        },
        {
          "internalType": "uint256",
          "name": "_paymentAmount",
          "type": "uint256"
        }
      ],
      "name": "calculateTokensForPayment",
      "outputs": [
        {
          "internalType": "uint256",
          "name": "",
          "type": "uint256"
        }
      ],
      "stateMutability": "view",
      "type": "function"
    },
    {
      "inputs": [
        {
          "internalType": "enum PredictionMarket.Outcome",
          "name": "_outcome",
          "type": "uint8"
        },
        {
          "internalType": "uint256",
          "name": "_tradingAmount",
          "type": "uint256"
        }
      ],
      "name": "getBuyPrice",
      "outputs": [
        {
          "internalType": "uint256",
          "name": "",
          "type": "uint256"
        }
      ],
      "stateMutability": "view",
      "type": "function"
    },
    {
      "inputs": [],
      "name": "getExpectedAuthor",
      "outputs": [
        {
          "internalType": "address",
          "name": "",
          "type": "address"
        }
      ],
      "stateMutability": "view",
      "type": "function"
    },
    {
      "inputs": [],
      "name": "getExpectedWorkflowId",
      "outputs": [
        {
          "internalType": "bytes32",
          "name": "",
          "type": "bytes32"
        }
      ],
      "stateMutability": "view",
      "type": "function"
    },
    {
      "inputs": [],
      "name": "getExpectedWorkflowName",
      "outputs": [
        {
          "internalType": "bytes10",
          "name": "",
          "type": "bytes10"
        }
      ],
      "stateMutability": "view",
      "type": "function"
    },
    {
      "inputs": [],
      "name": "getForwarderAddress",
      "outputs": [
        {
          "internalType": "address",
          "name": "",
          "type": "address"
        }
      ],
      "stateMutability": "view",
      "type": "function"
    },
    {
      "inputs": [],
      "name": "getPrediction",
      "outputs": [
        {
          "components": [
            {
              "internalType": "string",
              "name": "question",
              "type": "string"
            },
            {
              "internalType": "string",
              "name": "outcome1",
              "type": "string"
            },
            {
              "internalType": "string",
              "name": "outcome2",
              "type": "string"
            },
            {
              "internalType": "address",
              "name": "oracle",
              "type": "address"
            },
            {
              "internalType": "uint256",
              "name": "initialTokenValue",
              "type": "uint256"
            },
            {
              "internalType": "uint256",
              "name": "yesTokenReserve",
              "type": "uint256"
            },
            {
              "internalType": "uint256",
              "name": "noTokenReserve",
              "type": "uint256"
            },
            {
              "internalType": "bool",
              "name": "isReported",
              "type": "bool"
            },
            {
              "internalType": "address",
              "name": "yesToken",
              "type": "address"
            },
            {
              "internalType": "address",
              "name": "noToken",
              "type": "address"
            },
            {
              "internalType": "address",
              "name": "winningToken",
              "type": "address"
            },
            {
              "internalType": "uint256",
              "name": "collateral",
              "type": "uint256"
            },
            {
              "internalType": "uint256",
              "name": "lpTradingRevenue",
              "type": "uint256"
            },
            {
              "internalType": "address",
              "name": "predictionMarketOwner",
              "type": "address"
            },
            {
              "internalType": "uint256",
              "name": "initialProbability",
              "type": "uint256"
            },
            {
              "internalType": "uint256",
              "name": "percentageLocked",
              "type": "uint256"
            }
          ],
          "internalType": "struct PredictionMarket.PredictionDetails",
          "name": "details",
          "type": "tuple"
        }
      ],
      "stateMutability": "view",
      "type": "function"
    },
    {
      "inputs": [
        {
          "internalType": "enum PredictionMarket.Outcome",
          "name": "_outcome",
          "type": "uint8"
        },
        {
          "internalType": "uint256",
          "name": "_tradingAmount",
          "type": "uint256"
        }
      ],
      "name": "getSellPrice",
      "outputs": [
        {
          "internalType": "uint256",
          "name": "",
          "type": "uint256"
        }
      ],
      "stateMutability": "view",
      "type": "function"
    },
    {
      "inputs": [],
      "name": "i_initialTokenValue",
      "outputs": [
        {
          "internalType": "uint256",
          "name": "",
          "type": "uint256"
        }
      ],
      "stateMutability": "view",
      "type": "function"
    },
    {
      "inputs": [],
      "name": "i_initialYesProbability",
      "outputs": [
        {
          "internalType": "uint8",
          "name": "",
          "type": "uint8"
        }
      ],
      "stateMutability": "view",
      "type": "function"
    },
    {
      "inputs": [],
      "name": "i_noToken",
      "outputs": [
        {
          "internalType": "contract PredictionMarketToken",
          "name": "",
          "type": "address"
        }
      ],
      "stateMutability": "view",
      "type": "function"
    },
    {
      "inputs": [],
      "name": "i_oracle",
      "outputs": [
        {
          "internalType": "address",
          "name": "",
          "type": "address"
        }
      ],
      "stateMutability": "view",
      "type": "function"
    },
    {
      "inputs": [],
      "name": "i_paymentToken",
      "outputs": [
        {
          "internalType": "contract IERC20",
          "name": "",
          "type": "address"
        }
      ],
      "stateMutability": "view",
      "type": "function"
    },
    {
      "inputs": [],
      "name": "i_percentageLocked",
      "outputs": [
        {
          "internalType": "uint8",
          "name": "",
          "type": "uint8"
        }
      ],
      "stateMutability": "view",
      "type": "function"
    },
    {
      "inputs": [],
      "name": "i_yesToken",
      "outputs": [
        {
          "internalType": "contract PredictionMarketToken",
          "name": "",
          "type": "address"
        }
      ],
      "stateMutability": "view",
      "type": "function"
    },
    {
      "inputs": [],
      "name": "initialize",
      "outputs": [],
      "stateMutability": "nonpayable",
      "type": "function"
    },
    {
      "inputs": [
        {
          "internalType": "bytes",
          "name": "metadata",
          "type": "bytes"
        },
        {
          "internalType": "bytes",
          "name": "report",
          "type": "bytes"
        }
      ],
      "name": "onReport",
      "outputs": [],
      "stateMutability": "nonpayable",
      "type": "function"
    },
    {
      "inputs": [],
      "name": "owner",
      "outputs": [
        {
          "internalType": "address",
          "name": "",
          "type": "address"
        }
      ],
      "stateMutability": "view",
      "type": "function"
    },
    {
      "inputs": [
        {
          "internalType": "uint256",
          "name": "_amount",
          "type": "uint256"
        }
      ],
      "name": "redeemWinningTokens",
      "outputs": [],
      "stateMutability": "nonpayable",
      "type": "function"
    },
    {
      "inputs": [
        {
          "internalType": "uint256",
          "name": "_amountToWithdraw",
          "type": "uint256"
        }
      ],
      "name": "removeLiquidity",
      "outputs": [],
      "stateMutability": "nonpayable",
      "type": "function"
    },
    {
      "inputs": [],
      "name": "renounceOwnership",
      "outputs": [],
      "stateMutability": "nonpayable",
      "type": "function"
    },
    {
      "inputs": [
        {
          "internalType": "enum PredictionMarket.Outcome",
          "name": "_winningOutcome",
          "type": "uint8"
        }
      ],
      "name": "reportManually",
      "outputs": [],
      "stateMutability": "nonpayable",
      "type": "function"
    },
    {
      "inputs": [
        {
          "internalType": "uint256",
          "name": "_marketId",
          "type": "uint256"
        }
      ],
      "name": "requestSettlement",
      "outputs": [],
      "stateMutability": "nonpayable",
      "type": "function"
    },
    {
      "inputs": [],
      "name": "resolveMarketAndWithdraw",
      "outputs": [
        {
          "internalType": "uint256",
          "name": "payoutAmount",
          "type": "uint256"
        }
      ],
      "stateMutability": "nonpayable",
      "type": "function"
    },
    {
      "inputs": [],
      "name": "s_collateral",
      "outputs": [
        {
          "internalType": "uint256",
          "name": "",
          "type": "uint256"
        }
      ],
      "stateMutability": "view",
      "type": "function"
    },
    {
      "inputs": [],
      "name": "s_confidenceBps",
      "outputs": [
        {
          "internalType": "uint16",
          "name": "",
          "type": "uint16"
        }
      ],
      "stateMutability": "view",
      "type": "function"
    },
    {
      "inputs": [],
      "name": "s_evidenceURI",
      "outputs": [
        {
          "internalType": "string",
          "name": "",
          "type": "string"
        }
      ],
      "stateMutability": "view",
      "type": "function"
    },
    {
      "inputs": [],
      "name": "s_isReported",
      "outputs": [
        {
          "internalType": "bool",
          "name": "",
          "type": "bool"
        }
      ],
      "stateMutability": "view",
      "type": "function"
    },
    {
      "inputs": [],
      "name": "s_lpTradingRevenue",
      "outputs": [
        {
          "internalType": "uint256",
          "name": "",
          "type": "uint256"
        }
      ],
      "stateMutability": "view",
      "type": "function"
    },
    {
      "inputs": [],
      "name": "s_pendingInitialLiquidity",
      "outputs": [
        {
          "internalType": "uint256",
          "name": "",
          "type": "uint256"
        }
      ],
      "stateMutability": "view",
      "type": "function"
    },
    {
      "inputs": [],
      "name": "s_question",
      "outputs": [
        {
          "internalType": "string",
          "name": "",
          "type": "string"
        }
      ],
      "stateMutability": "view",
      "type": "function"
    },
    {
      "inputs": [],
      "name": "s_winningToken",
      "outputs": [
        {
          "internalType": "contract PredictionMarketToken",
          "name": "",
          "type": "address"
        }
      ],
      "stateMutability": "view",
      "type": "function"
    },
    {
      "inputs": [
        {
          "internalType": "enum PredictionMarket.Outcome",
          "name": "_outcome",
          "type": "uint8"
        },
        {
          "internalType": "uint256",
          "name": "_tradingAmount",
          "type": "uint256"
        },
        {
          "internalType": "uint256",
          "name": "_minRefund",
          "type": "uint256"
        }
      ],
      "name": "sellTokens",
      "outputs": [],
      "stateMutability": "nonpayable",
      "type": "function"
    },
    {
      "inputs": [
        {
          "internalType": "address",
          "name": "_author",
          "type": "address"
        }
      ],
      "name": "setExpectedAuthor",
      "outputs": [],
      "stateMutability": "nonpayable",
      "type": "function"
    },
    {
      "inputs": [
        {
          "internalType": "bytes32",
          "name": "_id",
          "type": "bytes32"
        }
      ],
      "name": "setExpectedWorkflowId",
      "outputs": [],
      "stateMutability": "nonpayable",
      "type": "function"
    },
    {
      "inputs": [
        {
          "internalType": "string",
          "name": "_name",
          "type": "string"
        }
      ],
      "name": "setExpectedWorkflowName",
      "outputs": [],
      "stateMutability": "nonpayable",
      "type": "function"
    },
    {
      "inputs": [
        {
          "internalType": "address",
          "name": "_forwarder",
          "type": "address"
        }
      ],
      "name": "setForwarderAddress",
      "outputs": [],
      "stateMutability": "nonpayable",
      "type": "function"
    },
    {
      "inputs": [
        {
          "internalType": "bytes4",
          "name": "interfaceId",
          "type": "bytes4"
        }
      ],
      "name": "supportsInterface",
      "outputs": [
        {
          "internalType": "bool",
          "name": "",
          "type": "bool"
        }
      ],
      "stateMutability": "pure",
      "type": "function"
    },
    {
      "inputs": [
        {
          "internalType": "address",
          "name": "newOwner",
          "type": "address"
        }
      ],
      "name": "transferOwnership",
      "outputs": [],
      "stateMutability": "nonpayable",
      "type": "function"
    },
    {
      "stateMutability": "payable",
      "type": "receive"
    }
  ],
  "bytecode": "0x61016060405234801561001157600080fd5b506040516151d33803806151d383398101604081905261003091610433565b81338061005757604051631e4fbdf760e01b81526000600482015260240160405180910390fd5b61006081610393565b506001600160a01b0381166100875760405162e0775560e61b815260040160405180910390fd5b600180546001600160a01b0319166001600160a01b0383169081179091556040516000907f039ad854736757070884dd787ef1a7f58db33546639d1f3efddcf4a33fb8997e908290a350806000036100f257604051632688641b60e21b815260040160405180910390fd5b60648560ff161115610117576040516324f7391760e21b815260040160405180910390fd5b60648460ff16111561013c5760405163103731c360e21b815260040160405180910390fd5b6001600160a01b0380891660805260a087905260ff8087166101205285166101005283166101405260076101708882610609565b50600481905560a05160009061018e670de0b6b3a7640000846106dd565b61019891906106fa565b905060006127108660ff168860ff16846101b291906106dd565b6101bc91906106dd565b6101c79060026106dd565b6101d191906106fa565b9050600061271060ff88166101e78a606461071c565b6101f49060ff16866106dd565b6101fe91906106dd565b6102099060026106dd565b61021391906106fa565b90508b8383604051610224906103e3565b60a08082526003908201526259657360e81b60c082015260e060208201819052600190820152605960f81b6101008201526001600160a01b0390931660408401526060830191909152608082015261012001604051809103906000f080158015610292573d6000803e3d6000fd5b506001600160a01b031660c0526040518c90849083906102b1906103e3565b60a0808252600290820152614e6f60f01b60c082015260e060208201819052600190820152602760f91b6101008201526001600160a01b0390931660408401526060830191909152608082015261012001604051809103906000f08015801561031e573d6000803e3d6000fd5b506001600160a01b031660e0526103348c610393565b6000600455600584905560408051858152602081018590526001600160a01b038e16917fac1d76749e5447b7b16f5ab61447e1bd502f3bb4807af3b28e620d1700a6ee45910160405180910390a2505050505050505050505050610735565b600080546001600160a01b038381166001600160a01b0319831681178455604051919092169283917f8be0079c531659141344cd1fd0a4f28419497f9722a3daafe3b4186f6b6457e09190a35050565b610e0b806143c883390190565b80516001600160a01b038116811461040757600080fd5b919050565b634e487b7160e01b600052604160045260246000fd5b805160ff8116811461040757600080fd5b60008060008060008060008060006101208a8c03121561045257600080fd5b61045b8a6103f0565b985061046960208b016103f0565b60408b01519098506001600160401b0381111561048557600080fd5b8a01601f81018c1361049657600080fd5b80516001600160401b038111156104af576104af61040c565b604051601f8201601f19908116603f011681016001600160401b03811182821017156104dd576104dd61040c565b6040528181528282016020018e10156104f557600080fd5b60005b82811015610514576020818501810151838301820152016104f8565b5060009181016020019190915260608c01519098509650610539905060808b01610422565b945061054760a08b01610422565b935061055560c08b016103f0565b925061056360e08b016103f0565b915060006101008b01519050809150509295985092959850929598565b600181811c9082168061059457607f821691505b6020821081036105b457634e487b7160e01b600052602260045260246000fd5b50919050565b601f82111561060457806000526020600020601f840160051c810160208510156105e15750805b601f840160051c820191505b8181101561060157600081556001016105ed565b50505b505050565b81516001600160401b038111156106225761062261040c565b610636816106308454610580565b846105ba565b6020601f82116001811461066a57600083156106525750848201515b600019600385901b1c1916600184901b178455610601565b600084815260208120601f198516915b8281101561069a578785015182556020948501946001909201910161067a565b50848210156106b85786840151600019600387901b60f8161c191681555b50505050600190811b01905550565b634e487b7160e01b600052601160045260246000fd5b80820281158282048414176106f4576106f46106c7565b92915050565b60008261071757634e487b7160e01b600052601260045260246000fd5b500490565b60ff82811682821603908111156106f4576106f46106c7565b60805160a05160c05160e051610100516101205161014051613b056108c3600039600081816106e101528181610d3b0152818161101701528181611134015281816113d50152818161188b01528181611c160152611f9f0152600081816107aa015281816108ed0152818161093e0152612131015260008181610533015261210801526000818161030f0152818161087101528181610c40015281816111f6015281816114eb0152818161194301528181611de401528181611f2c01528181612241015281816122d6015281816124030152818161299701528181612ad20152612cec0152600081816104960152818161089701528181610c6601528181611178015281816115110152818161196901528181611d3e01528181611eae01528181612216015281816123760152818161291101528181612a3a0152612d3f01526000818161064d0152818161097e01528181610f37015281816110d201528181611ce1015281816120e001526130b10152600081816103ed0152818161146101526120b90152613b056000f3fe60806040526004361061024a5760003560e01c80638dfeb95211610139578063c3c44ac2116100b6578063e242d5951161007a578063e242d59514610743578063eb620f8214610763578063f1ce164014610798578063f2fde38b146107cc578063f4fc6cdb146107ec578063f5c793ef1461080c57600080fd5b8063c3c44ac21461068f578063ccb7c252146106af578063cd2ae956146106cf578063d60c884b14610703578063d777cc6d1461072357600080fd5b80639f615ee1116100fd5780639f615ee1146105cc578063a619d818146105ee578063aa7a939914610621578063ac3b90bb1461063b578063bc1fc27a1461066f57600080fd5b80638dfeb9521461050b578063910ec81b1461052157806391c721e314610567578063932f223f1461058c5780639c8f9f23146105ac57600080fd5b80635cb2deb5116101c75780637626a85c1161018b5780637626a85c1461046e57806379b3d94a14610484578063805f2132146104b85780638129fc1c146104d85780638da5cb5b146104ed57600080fd5b80635cb2deb5146103db57806365e23abc1461040f5780636e083c4614610424578063715018a614610439578063725081711461044e57600080fd5b80633397cf671161020e5780633397cf67146103495780633441856f1461036757806346e700ca146103855780634c5b59a51461039b57806351c6590a146103bb57600080fd5b806301ffc9a7146102565780630edaa3f91461028b57806314926d98146102b9578063175d43a7146102db5780631816ca6f146102fd57600080fd5b3661025157005b600080fd5b34801561026257600080fd5b50610276610271366004613211565b610821565b60405190151581526020015b60405180910390f35b34801561029757600080fd5b506102ab6102a636600461324f565b610832565b604051908152602001610282565b3480156102c557600080fd5b506102ce610ac2565b60405161028291906132c9565b3480156102e757600080fd5b506102fb6102f63660046132dc565b610b50565b005b34801561030957600080fd5b506103317f000000000000000000000000000000000000000000000000000000000000000081565b6040516001600160a01b039091168152602001610282565b34801561035557600080fd5b506002546001600160a01b0316610331565b34801561037357600080fd5b506001546001600160a01b0316610331565b34801561039157600080fd5b506102ab60045481565b3480156103a757600080fd5b506102fb6103b636600461330f565b610e22565b3480156103c757600080fd5b506102fb6103d636600461330f565b611081565b3480156103e757600080fd5b506103317f000000000000000000000000000000000000000000000000000000000000000081565b34801561041b57600080fd5b506102ab61129c565b34801561043057600080fd5b506102ce611435565b34801561044557600080fd5b506102fb611442565b34801561045a57600080fd5b506102fb610469366004613328565b611456565b34801561047a57600080fd5b506102ab60055481565b34801561049057600080fd5b506103317f000000000000000000000000000000000000000000000000000000000000000081565b3480156104c457600080fd5b506102fb6104d336600461338c565b61159b565b3480156104e457600080fd5b506102fb6117cf565b3480156104f957600080fd5b506000546001600160a01b0316610331565b34801561051757600080fd5b506102ab60065481565b34801561052d57600080fd5b506105557f000000000000000000000000000000000000000000000000000000000000000081565b60405160ff9091168152602001610282565b34801561057357600080fd5b506008546103319061010090046001600160a01b031681565b34801561059857600080fd5b506102fb6105a73660046132dc565b6118b6565b3480156105b857600080fd5b506102fb6105c736600461330f565b611c8e565b3480156105d857600080fd5b506105e1612000565b60405161028291906133fd565b3480156105fa57600080fd5b50600254600160a01b900460b01b6040516001600160b01b03199091168152602001610282565b34801561062d57600080fd5b506008546102769060ff1681565b34801561064757600080fd5b506102ab7f000000000000000000000000000000000000000000000000000000000000000081565b34801561067b57600080fd5b506102fb61068a366004613543565b6124a0565b34801561069b57600080fd5b506102fb6106aa36600461330f565b61268a565b3480156106bb57600080fd5b506102ab6106ca36600461324f565b6126cb565b3480156106db57600080fd5b506103317f000000000000000000000000000000000000000000000000000000000000000081565b34801561070f57600080fd5b506102fb61071e366004613585565b6126e0565b34801561072f57600080fd5b506102fb61073e366004613585565b61273a565b34801561074f57600080fd5b506102ab61075e36600461324f565b612836565b34801561076f57600080fd5b5060085461078590600160a81b900461ffff1681565b60405161ffff9091168152602001610282565b3480156107a457600080fd5b506105557f000000000000000000000000000000000000000000000000000000000000000081565b3480156107d857600080fd5b506102fb6107e7366004613585565b612844565b3480156107f857600080fd5b506102fb61080736600461330f565b61287f565b34801561081857600080fd5b506003546102ab565b600061082c826128d4565b92915050565b6000816000036108445750600061082c565b6000806108508561290a565b909250905060008086600181111561086a5761086a6135ae565b14610895577f00000000000000000000000000000000000000000000000000000000000000006108b7565b7f00000000000000000000000000000000000000000000000000000000000000005b9050816000036109d3576000808760018111156108d6576108d66135ae565b1461092c576064670de0b6b3a764000061091360ff7f000000000000000000000000000000000000000000000000000000000000000016836135da565b61091d91906135ed565b6109279190613604565b61096d565b6064610963670de0b6b3a764000060ff7f0000000000000000000000000000000000000000000000000000000000000000166135ed565b61096d9190613604565b9050670de0b6b3a76400006109a2827f00000000000000000000000000000000000000000000000000000000000000006135ed565b6109ac9190613604565b6109be670de0b6b3a7640000886135ed565b6109c89190613604565b94505050505061082c565b6040516370a0823160e01b815230600482015260009081906001600160a01b038416906370a0823190602401602060405180830381865afa158015610a1c573d6000803e3d6000fd5b505050506040513d601f19601f82011682018060405250810190610a409190613626565b905060008060005b600a811015610ab3576002610a5d858761363f565b610a679190613604565b92508215610ab357610a798b846126cb565b915089821015610a8b57829450610aab565b89821115610a9b57829350610aab565b829850505050505050505061082c565b600101610a48565b50929998505050505050505050565b60078054610acf90613652565b80601f0160208091040260200160405190810160405280929190818152602001828054610afb90613652565b8015610b485780601f10610b1d57610100808354040283529160200191610b48565b820191906000526020600020905b815481529060010190602001808311610b2b57829003601f168201915b505050505081565b60085460ff1615610b74576040516378e34bb960e01b815260040160405180910390fd5b6000546001600160a01b03163303610b9f5760405163086b2ac360e41b815260040160405180910390fd5b8180600003610bc157604051632688641b60e21b815260040160405180910390fd5b6000610bcd8585610832565b905082811015610c245760405162461bcd60e51b815260206004820152601a60248201527f496e73756666696369656e74206f757470757420616d6f756e7400000000000060448201526064015b60405180910390fd5b600080866001811115610c3957610c396135ae565b14610c64577f0000000000000000000000000000000000000000000000000000000000000000610c86565b7f00000000000000000000000000000000000000000000000000000000000000005b6040516370a0823160e01b815230600482015290915082906001600160a01b038316906370a0823190602401602060405180830381865afa158015610ccf573d6000803e3d6000fd5b505050506040513d601f19601f82011682018060405250810190610cf39190613626565b1015610d1657858260405163a4d71b8160e01b8152600401610c1b9291906136ae565b8460066000828254610d28919061363f565b90915550610d6390506001600160a01b037f000000000000000000000000000000000000000000000000000000000000000016333088612b85565b60405163a9059cbb60e01b8152336004820152602481018390526001600160a01b0382169063a9059cbb906044016020604051808303816000875af1158015610db0573d6000803e3d6000fd5b505050506040513d601f19601f82011682018060405250810190610dd491906136c9565b50336001600160a01b03167f78408fb808ae2018d121a91ae47221eb4b85530dc14522ce2ddcb93083e269d6878488604051610e12939291906136eb565b60405180910390a2505050505050565b8080600003610e4457604051632688641b60e21b815260040160405180910390fd5b6000546001600160a01b03163303610e6f5760405163086b2ac360e41b815260040160405180910390fd5b60085460ff16610e9257604051635fd4000d60e11b815260040160405180910390fd5b6008546040516370a0823160e01b815233600482015260009161010090046001600160a01b0316906370a0823190602401602060405180830381865afa158015610ee0573d6000803e3d6000fd5b505050506040513d601f19601f82011682018060405250810190610f049190613626565b905082811015610f27576040516328f48e2f60e01b815260040160405180910390fd5b6000670de0b6b3a7640000610f5c7f0000000000000000000000000000000000000000000000000000000000000000866135ed565b610f669190613604565b9050600454811115610f8b5760405163224e54d760e01b815260040160405180910390fd5b8060046000828254610f9d91906135da565b9091555050600854604051632770a7eb60e21b8152336004820152602481018690526101009091046001600160a01b031690639dc29fac90604401600060405180830381600087803b158015610ff257600080fd5b505af1158015611006573d6000803e3d6000fd5b506110409250506001600160a01b037f00000000000000000000000000000000000000000000000000000000000000001690503383612bbb565b604080518581526020810183905233917faeb4b315a6442ab135da41b9b7b337c712b68e5a6051ef6299965f3e58dbebbb910160405180910390a250505050565b611089612bf5565b60085460ff16156110ad576040516378e34bb960e01b815260040160405180910390fd5b806000036110ce57604051632688641b60e21b815260040160405180910390fd5b60007f0000000000000000000000000000000000000000000000000000000000000000611103670de0b6b3a7640000846135ed565b61110d9190613604565b90508160046000828254611121919061363f565b9091555061115c90506001600160a01b037f000000000000000000000000000000000000000000000000000000000000000016333085612b85565b6040516340c10f1960e01b8152306004820152602481018290527f00000000000000000000000000000000000000000000000000000000000000006001600160a01b0316906340c10f1990604401600060405180830381600087803b1580156111c457600080fd5b505af11580156111d8573d6000803e3d6000fd5b50506040516340c10f1960e01b8152306004820152602481018490527f00000000000000000000000000000000000000000000000000000000000000006001600160a01b031692506340c10f199150604401600060405180830381600087803b15801561124457600080fd5b505af1158015611258573d6000803e3d6000fd5b505060408051858152602081018590523393507fac1d76749e5447b7b16f5ab61447e1bd502f3bb4807af3b28e620d1700a6ee459250015b60405180910390a25050565b60006112a6612bf5565b60085460ff166112c957604051635fd4000d60e11b815260040160405180910390fd5b6008546040516370a0823160e01b815230600482015260009161010090046001600160a01b0316906370a0823190602401602060405180830381865afa158015611317573d6000803e3d6000fd5b505050506040513d601f19601f8201168201806040525081019061133b9190613626565b905080156113ac57600854604051632770a7eb60e21b8152306004820152602481018390526101009091046001600160a01b031690639dc29fac90604401600060405180830381600087803b15801561139357600080fd5b505af11580156113a7573d6000803e3d6000fd5b505050505b6006546004546113bc919061363f565b6000600481905560065591506113fc6001600160a01b037f0000000000000000000000000000000000000000000000000000000000000000163384612bbb565b60405182815233907f316a0bcd9820c43f9ba8738fd680d536a8ac65080f56f96833f696f6dd5a12fd9060200160405180910390a25090565b60098054610acf90613652565b61144a612bf5565b6114546000612c22565b565b336001600160a01b037f0000000000000000000000000000000000000000000000000000000000000000161461149f5760405163d101b32160e01b815260040160405180910390fd5b60085460ff16156114c3576040516378e34bb960e01b815260040160405180910390fd5b6008805460ff1916600117905560008160018111156114e4576114e46135ae565b1461150f577f0000000000000000000000000000000000000000000000000000000000000000611531565b7f00000000000000000000000000000000000000000000000000000000000000005b60088054610100600160a81b0319166101006001600160a01b039384168102919091179182905560405133937f54abe5cff8746fc59eefd3a10a4e9821354cd951ffef23d64fdb7939b6e2e4199361159093879391049091169061370a565b60405180910390a250565b6001546001600160a01b0316158015906115c057506001546001600160a01b03163314155b156115f35760015460405163708986dd60e11b81523360048201526001600160a01b039091166024820152604401610c1b565b60035415158061160d57506002546001600160a01b031615155b8061162d5750600254600160a01b900460b01b6001600160b01b03191615155b156117bf57600080600061167687878080601f016020809104026020016040519081016040528093929190818152602001838380828437600092019190915250612c7292505050565b60035492955090935091501580159061169157506003548314155b156116bd57600354604051634dfd1cdd60e11b8152610c1b918591600401918252602082015260400190565b6002546001600160a01b0316158015906116e557506002546001600160a01b03828116911614155b1561171a57600254604051631715315f60e31b81526001600160a01b0380841660048301529091166024820152604401610c1b565b600254600160a01b900460b01b6001600160b01b031916156117bb576002546001600160a01b031661175f57604051634847901160e01b815260040160405180910390fd5b6002546001600160b01b0319838116600160a01b90920460b01b16146117bb5760025460405163362304d360e11b81526001600160b01b03198481166004830152600160a01b90920460b01b9091166024820152604401610c1b565b5050505b6117c98282612c8b565b50505050565b600454156118155760405162461bcd60e51b8152602060048201526013602482015272105b1c9958591e481a5b9a5d1a585b1a5e9959606a1b6044820152606401610c1b565b60055460000361185e5760405162461bcd60e51b81526020600482015260146024820152734e6f2070656e64696e67206c697175696469747960601b6044820152606401610c1b565b60058054600090915560048190556118b36118816000546001600160a01b031690565b6001600160a01b037f000000000000000000000000000000000000000000000000000000000000000016903084612b85565b50565b60085460ff16156118da576040516378e34bb960e01b815260040160405180910390fd5b6000546001600160a01b031633036119055760405163086b2ac360e41b815260040160405180910390fd5b818060000361192757604051632688641b60e21b815260040160405180910390fd5b60008085600181111561193c5761193c6135ae565b14611967577f0000000000000000000000000000000000000000000000000000000000000000611989565b7f00000000000000000000000000000000000000000000000000000000000000005b6040516370a0823160e01b81523360048201529091506000906001600160a01b038316906370a0823190602401602060405180830381865afa1580156119d3573d6000803e3d6000fd5b505050506040513d601f19601f820116820180604052508101906119f79190613626565b905084811015611a245760405163053ab6d560e21b81526004810186905260248101829052604401610c1b565b604051636eb1769f60e11b81523360048201523060248201526000906001600160a01b0384169063dd62ed3e90604401602060405180830381865afa158015611a71573d6000803e3d6000fd5b505050506040513d601f19601f82011682018060405250810190611a959190613626565b905085811015611ac2576040516377594e6960e01b81526004810187905260248101829052604401610c1b565b6000611ace8888612836565b905085811015611b205760405162461bcd60e51b815260206004820152601760248201527f526566756e642062656c6f77206d696e20726566756e640000000000000000006044820152606401610c1b565b600454600654611b30919061363f565b811115611b505760405163224e54d760e01b815260040160405180910390fd5b6006548111611b76578060066000828254611b6b91906135da565b90915550611ba99050565b600060065482611b8691906135da565b905060006006819055508060046000828254611ba291906135da565b9091555050505b604051632770a7eb60e21b8152336004820152602481018890526001600160a01b03851690639dc29fac90604401600060405180830381600087803b158015611bf157600080fd5b505af1158015611c05573d6000803e3d6000fd5b50611c3f9250506001600160a01b037f00000000000000000000000000000000000000000000000000000000000000001690503383612bbb565b336001600160a01b03167fdb6c1cc84b96330a9be015b7f4d49df42a035945bf4bc3423e48a6e4259dbb7b898984604051611c7c939291906136eb565b60405180910390a25050505050505050565b611c96612bf5565b60085460ff1615611cba576040516378e34bb960e01b815260040160405180910390fd5b600454811115611cdd5760405163224e54d760e01b815260040160405180910390fd5b60007f0000000000000000000000000000000000000000000000000000000000000000611d12670de0b6b3a7640000846135ed565b611d1c9190613604565b6040516370a0823160e01b815230600482015290915081906001600160a01b037f000000000000000000000000000000000000000000000000000000000000000016906370a0823190602401602060405180830381865afa158015611d85573d6000803e3d6000fd5b505050506040513d601f19601f82011682018060405250810190611da99190613626565b1015611dcd5760008160405163a4d71b8160e01b8152600401610c1b9291906136ae565b6040516370a0823160e01b815230600482015281907f00000000000000000000000000000000000000000000000000000000000000006001600160a01b0316906370a0823190602401602060405180830381865afa158015611e33573d6000803e3d6000fd5b505050506040513d601f19601f82011682018060405250810190611e579190613626565b1015611e7b5760018160405163a4d71b8160e01b8152600401610c1b9291906136ae565b8160046000828254611e8d91906135da565b9091555050604051632770a7eb60e21b8152306004820152602481018290527f00000000000000000000000000000000000000000000000000000000000000006001600160a01b031690639dc29fac90604401600060405180830381600087803b158015611efa57600080fd5b505af1158015611f0e573d6000803e3d6000fd5b5050604051632770a7eb60e21b8152306004820152602481018490527f00000000000000000000000000000000000000000000000000000000000000006001600160a01b03169250639dc29fac9150604401600060405180830381600087803b158015611f7a57600080fd5b505af1158015611f8e573d6000803e3d6000fd5b50611fc89250506001600160a01b037f00000000000000000000000000000000000000000000000000000000000000001690503384612bbb565b604080518381526020810183905233917f96cd817c6329656790ef8fba7675405193677d39619571282f5e21f3a98cd0599101611290565b6120af60405180610200016040528060608152602001606081526020016060815260200160006001600160a01b0316815260200160008152602001600081526020016000815260200160001515815260200160006001600160a01b0316815260200160006001600160a01b0316815260200160006001600160a01b03168152602001600081526020016000815260200160006001600160a01b0316815260200160008152602001600081525090565b6001600160a01b037f00000000000000000000000000000000000000000000000000000000000000001660608201527f0000000000000000000000000000000000000000000000000000000000000000608082015260ff7f000000000000000000000000000000000000000000000000000000000000000081166101e08301527f0000000000000000000000000000000000000000000000000000000000000000166101c08201526007805461216490613652565b80601f016020809104026020016040519081016040528092919081815260200182805461219090613652565b80156121dd5780601f106121b2576101008083540402835291602001916121dd565b820191906000526020600020905b8154815290600101906020018083116121c057829003601f168201915b50505091835250506004546101608201526006546101808201526000546001600160a01b03166001600160a01b039081166101a08301527f0000000000000000000000000000000000000000000000000000000000000000811661010083018190527f0000000000000000000000000000000000000000000000000000000000000000909116610120830152604080516306fdde0360e01b815290516306fdde03916004808201926000929091908290030181865afa1580156122a4573d6000803e3d6000fd5b505050506040513d6000823e601f3d908101601f191682016040526122cc919081019061379f565b81602001819052507f00000000000000000000000000000000000000000000000000000000000000006001600160a01b03166306fdde036040518163ffffffff1660e01b8152600401600060405180830381865afa158015612332573d6000803e3d6000fd5b505050506040513d6000823e601f3d908101601f1916820160405261235a919081019061379f565b604082810191909152516370a0823160e01b81523060048201527f00000000000000000000000000000000000000000000000000000000000000006001600160a01b0316906370a0823190602401602060405180830381865afa1580156123c5573d6000803e3d6000fd5b505050506040513d601f19601f820116820180604052508101906123e99190613626565b60a08201526040516370a0823160e01b81523060048201527f00000000000000000000000000000000000000000000000000000000000000006001600160a01b0316906370a0823190602401602060405180830381865afa158015612452573d6000803e3d6000fd5b505050506040513d601f19601f820116820180604052508101906124769190613626565b60c082015260085460ff8116151560e083015261010090046001600160a01b031661014082015290565b6124a8612bf5565b600254600160a01b900460b01b6000829003612510576002805469ffffffffffffffffffff60a01b191690556040516000906001600160b01b03198316907f1e7ddd09d504c82dcfc784a464b167469f5aad967606ec4822d848ef9141dfa5908390a3505050565b60006002848460405161252492919061381b565b602060405180830381855afa158015612541573d6000803e3d6000fd5b5050506040513d601f19601f820116820180604052508101906125649190613626565b905060006125928260405160200161257e91815260200190565b604051602081830303815290604052612e54565b60408051600a8082528183019092529192506000919060208201818036833701905050905060005b600a811015612611578281815181106125d5576125d561382b565b602001015160f81c60f81b8282815181106125f2576125f261382b565b60200101906001600160f81b031916908160001a9053506001016125ba565b5061261b81613841565b6002805469ffffffffffffffffffff60a01b1916600160a01b60b093841c81029190911791829055604051910490911b6001600160b01b031990811691908616907f1e7ddd09d504c82dcfc784a464b167469f5aad967606ec4822d848ef9141dfa590600090a3505050505050565b612692612bf5565b6003805490829055604051829082907f0dbedcdf21925e053b4c574eae180d7f2883235ab4976ecc0873598a2a999b0390600090a35050565b60006126d983836000613015565b9392505050565b6126e8612bf5565b600280546001600160a01b038381166001600160a01b0319831681179093556040519116919082907f3321cda85c145617e47418aa14255e9dcbec53a753778e57591703b89a3cad3190600090a35050565b612742612bf5565b6001546001600160a01b039081169082166127e5577f704da7db165c79c1e33d542c079333bbde970a733032d2f95fec8fb7d770cbf76040516127dc9060208082526038908201527f466f7277617264657220616464726573732073657420746f207a65726f202d2060408201527f636f6e7472616374206973206e6f7720494e5345435552450000000000000000606082015260800190565b60405180910390a15b600180546001600160a01b0319166001600160a01b0384811691821790925560405190918316907f039ad854736757070884dd787ef1a7f58db33546639d1f3efddcf4a33fb8997e90600090a35050565b60006126d983836001613015565b61284c612bf5565b6001600160a01b03811661287657604051631e4fbdf760e01b815260006004820152602401610c1b565b6118b381612c22565b60085460ff16156128a3576040516378e34bb960e01b815260040160405180910390fd5b807f0355cdf68e24814c7dc62aff7f0f02eecf17779d969144accb1ad4b432f51dad6007604051611590919061387f565b60006001600160e01b0319821663402f909960e11b148061082c57506001600160e01b031982166301ffc9a760e01b1492915050565b60008060007f00000000000000000000000000000000000000000000000000000000000000006001600160a01b03166318160ddd6040518163ffffffff1660e01b8152600401602060405180830381865afa15801561296d573d6000803e3d6000fd5b505050506040513d601f19601f820116820180604052508101906129919190613626565b905060007f00000000000000000000000000000000000000000000000000000000000000006001600160a01b03166318160ddd6040518163ffffffff1660e01b8152600401602060405180830381865afa1580156129f3573d6000803e3d6000fd5b505050506040513d601f19601f82011682018060405250810190612a179190613626565b6040516370a0823160e01b81523060048201529091506000906001600160a01b037f000000000000000000000000000000000000000000000000000000000000000016906370a0823190602401602060405180830381865afa158015612a81573d6000803e3d6000fd5b505050506040513d601f19601f82011682018060405250810190612aa59190613626565b612aaf90846135da565b6040516370a0823160e01b81523060048201529091506000906001600160a01b037f000000000000000000000000000000000000000000000000000000000000000016906370a0823190602401602060405180830381865afa158015612b19573d6000803e3d6000fd5b505050506040513d601f19601f82011682018060405250810190612b3d9190613626565b612b4790846135da565b90506000876001811115612b5d57612b5d6135ae565b03612b7a5781612b6d828261363f565b9550955050505050915091565b80612b6d818461363f565b612b938484848460016130f8565b6117c957604051635274afe760e01b81526001600160a01b0385166004820152602401610c1b565b612bc8838383600161316a565b612bf057604051635274afe760e01b81526001600160a01b0384166004820152602401610c1b565b505050565b6000546001600160a01b031633146114545760405163118cdaa760e01b8152336004820152602401610c1b565b600080546001600160a01b038381166001600160a01b0319831681178455604051919092169283917f8be0079c531659141344cd1fd0a4f28419497f9722a3daafe3b4186f6b6457e09190a35050565b60208101516040820151604a83015160601c9193909250565b6000808080612c9c8587018761390b565b6008549397509195509350915060ff1615612cca576040516378e34bb960e01b815260040160405180910390fd5b60008360ff16600103612d1f575060088054610100600160a81b0319166101007f00000000000000000000000000000000000000000000000000000000000000006001600160a01b0316021790556001612dce565b8360ff16600203612d72575060088054610100600160a81b0319166101007f00000000000000000000000000000000000000000000000000000000000000006001600160a01b0316021790556000612dce565b60405162461bcd60e51b815260206004820152602b60248201527f496e636f6e636c757369766520726573756c74202d20757365206d616e75616c60448201526a081cd95d1d1b195b595b9d60aa1b6064820152608401610c1b565b6008805461ffff8516600160a81b0260ff61ffff60a81b01199091161760011790556009612dfc8382613a10565b506008546040516000917f54abe5cff8746fc59eefd3a10a4e9821354cd951ffef23d64fdb7939b6e2e41991612e439185916101009091046001600160a01b03169061370a565b60405180910390a250505050505050565b6060600082516002612e6691906135ed565b67ffffffffffffffff811115612e7e57612e7e613730565b6040519080825280601f01601f191660200182016040528015612ea8576020820181803683370190505b50905060005b835181101561300e576040518060400160405280601081526020016f181899199a1a9b1b9c1cb0b131b232b360811b8152506004858381518110612ef457612ef461382b565b016020015182516001600160f81b031990911690911c60f81c908110612f1c57612f1c61382b565b01602001516001600160f81b03191682612f378360026135ed565b81518110612f4757612f4761382b565b60200101906001600160f81b031916908160001a9053506040518060400160405280601081526020016f181899199a1a9b1b9c1cb0b131b232b360811b815250848281518110612f9957612f9961382b565b602091010151815160f89190911c600f16908110612fb957612fb961382b565b01602001516001600160f81b03191682612fd48360026135ed565b612fdf90600161363f565b81518110612fef57612fef61382b565b60200101906001600160f81b031916908160001a905350600101612eae565b5092915050565b60008060006130238661290a565b91509150600061303383836131d0565b905060008561304b57613046878561363f565b613055565b61305587856135da565b905060008661306d57613068888561363f565b613077565b61307788856135da565b9050600061308583836131d0565b905060006002613095838761363f565b61309f9190613604565b9050670de0b6b3a76400008a6130d5837f00000000000000000000000000000000000000000000000000000000000000006135ed565b6130df91906135ed565b6130e99190613604565b9b9a5050505050505050505050565b6040516323b872dd60e01b60008181526001600160a01b038781166004528616602452604485905291602083606481808c5af19250600160005114831661315857838315161561314b573d6000823e3d81fd5b6000883b113d1516831692505b60405250600060605295945050505050565b60405163a9059cbb60e01b60008181526001600160a01b038616600452602485905291602083604481808b5af1925060016000511483166131c45783831516156131b7573d6000823e3d81fd5b6000873b113d1516831692505b60405250949350505050565b6000816000036131f4576131ed6002670de0b6b3a7640000613604565b905061082c565b81613207670de0b6b3a7640000856135ed565b6126d99190613604565b60006020828403121561322357600080fd5b81356001600160e01b0319811681146126d957600080fd5b80356002811061324a57600080fd5b919050565b6000806040838503121561326257600080fd5b61326b8361323b565b946020939093013593505050565b60005b8381101561329457818101518382015260200161327c565b50506000910152565b600081518084526132b5816020860160208601613279565b601f01601f19169290920160200192915050565b6020815260006126d9602083018461329d565b6000806000606084860312156132f157600080fd5b6132fa8461323b565b95602085013595506040909401359392505050565b60006020828403121561332157600080fd5b5035919050565b60006020828403121561333a57600080fd5b6126d98261323b565b60008083601f84011261335557600080fd5b50813567ffffffffffffffff81111561336d57600080fd5b60208301915083602082850101111561338557600080fd5b9250929050565b600080600080604085870312156133a257600080fd5b843567ffffffffffffffff8111156133b957600080fd5b6133c587828801613343565b909550935050602085013567ffffffffffffffff8111156133e557600080fd5b6133f187828801613343565b95989497509550505050565b6020815260008251610200602084015261341b61022084018261329d565b90506020840151601f19848303016040850152613438828261329d565b9150506040840151601f19848303016060850152613456828261329d565b915050606084015161347360808501826001600160a01b03169052565b50608084015160a084015260a084015160c084015260c084015160e084015260e08401516134a661010085018215159052565b506101008401516001600160a01b038116610120850152506101208401516001600160a01b038116610140850152506101408401516001600160a01b038116610160850152506101608401516101808401526101808401516101a08401526101a08401516135206101c08501826001600160a01b03169052565b506101c08401516101e08401526101e08401516102008401528091505092915050565b6000806020838503121561355657600080fd5b823567ffffffffffffffff81111561356d57600080fd5b61357985828601613343565b90969095509350505050565b60006020828403121561359757600080fd5b81356001600160a01b03811681146126d957600080fd5b634e487b7160e01b600052602160045260246000fd5b634e487b7160e01b600052601160045260246000fd5b8181038181111561082c5761082c6135c4565b808202811582820484141761082c5761082c6135c4565b60008261362157634e487b7160e01b600052601260045260246000fd5b500490565b60006020828403121561363857600080fd5b5051919050565b8082018082111561082c5761082c6135c4565b600181811c9082168061366657607f821691505b60208210810361368657634e487b7160e01b600052602260045260246000fd5b50919050565b600281106136aa57634e487b7160e01b600052602160045260246000fd5b9052565b604081016136bc828561368c565b8260208301529392505050565b6000602082840312156136db57600080fd5b815180151581146126d957600080fd5b606081016136f9828661368c565b602082019390935260400152919050565b60408101613718828561368c565b6001600160a01b039290921660209190910152919050565b634e487b7160e01b600052604160045260246000fd5b604051601f8201601f1916810167ffffffffffffffff8111828210171561376f5761376f613730565b604052919050565b600067ffffffffffffffff82111561379157613791613730565b50601f01601f191660200190565b6000602082840312156137b157600080fd5b815167ffffffffffffffff8111156137c857600080fd5b8201601f810184136137d957600080fd5b80516137ec6137e782613777565b613746565b81815285602083850101111561380157600080fd5b613812826020830160208601613279565b95945050505050565b8183823760009101908152919050565b634e487b7160e01b600052603260045260246000fd5b805160208201516001600160b01b031981169190600a821015613878576001600160b01b0319600a83900360031b81901b82161692505b5050919050565b60208152600080835461389181613652565b80602086015260018216600081146138b057600181146138cc57613900565b60ff1983166040870152604082151560051b8701019350613900565b86600052602060002060005b838110156138f7578154888201604001526001909101906020016138d8565b87016040019450505b509195945050505050565b6000806000806080858703121561392157600080fd5b84359350602085013560ff8116811461393957600080fd5b9250604085013561ffff8116811461395057600080fd5b9150606085013567ffffffffffffffff81111561396c57600080fd5b8501601f8101871361397d57600080fd5b803561398b6137e782613777565b8181528860208385010111156139a057600080fd5b8160208401602083013760006020838301015280935050505092959194509250565b601f821115612bf057806000526020600020601f840160051c810160208510156139e95750805b601f840160051c820191505b81811015613a0957600081556001016139f5565b5050505050565b815167ffffffffffffffff811115613a2a57613a2a613730565b613a3e81613a388454613652565b846139c2565b6020601f821160018114613a725760008315613a5a5750848201515b600019600385901b1c1916600184901b178455613a09565b600084815260208120601f198516915b82811015613aa25787850151825560209485019460019092019101613a82565b5084821015613ac05786840151600019600387901b60f8161c191681555b50505050600190811b0190555056fea26469706673582212202d4920482fda3904497c0404208d596ef27c3653eb60362b366558c5c0b890af64736f6c634300081e0033608060405234801561001057600080fd5b50604051610e0b380380610e0b83398101604081905261002f916102c5565b8484600361003d83826103ea565b50600461004a82826103ea565b505060058054336001600160a01b031991821617909155600680549091166001600160a01b0386161790555080156100865761008683826100a3565b6100993361009483856104be565b6100a3565b50505050506104ea565b6001600160a01b0382166100d25760405163ec442f0560e01b8152600060048201526024015b60405180910390fd5b6100de600083836100e2565b5050565b6001600160a01b03831661010d57806002600082825461010291906104d7565b9091555061017f9050565b6001600160a01b038316600090815260208190526040902054818110156101605760405163391434e360e21b81526001600160a01b038516600482015260248101829052604481018390526064016100c9565b6001600160a01b03841660009081526020819052604090209082900390555b6001600160a01b03821661019b576002805482900390556101ba565b6001600160a01b03821660009081526020819052604090208054820190555b816001600160a01b0316836001600160a01b03167fddf252ad1be2c89b69c2b068fc378daa952ba7f163c4a11628f55a4df523b3ef836040516101ff91815260200190565b60405180910390a3505050565b634e487b7160e01b600052604160045260246000fd5b600082601f83011261023357600080fd5b81516001600160401b0381111561024c5761024c61020c565b604051601f8201601f19908116603f011681016001600160401b038111828210171561027a5761027a61020c565b60405281815283820160200185101561029257600080fd5b60005b828110156102b157602081860181015183830182015201610295565b506000918101602001919091529392505050565b600080600080600060a086880312156102dd57600080fd5b85516001600160401b038111156102f357600080fd5b6102ff88828901610222565b602088015190965090506001600160401b0381111561031d57600080fd5b61032988828901610222565b604088015190955090506001600160a01b038116811461034857600080fd5b6060870151608090970151959894975095949392505050565b600181811c9082168061037557607f821691505b60208210810361039557634e487b7160e01b600052602260045260246000fd5b50919050565b601f8211156103e557806000526020600020601f840160051c810160208510156103c25750805b601f840160051c820191505b818110156103e257600081556001016103ce565b50505b505050565b81516001600160401b038111156104035761040361020c565b610417816104118454610361565b8461039b565b6020601f82116001811461044b57600083156104335750848201515b600019600385901b1c1916600184901b1784556103e2565b600084815260208120601f198516915b8281101561047b578785015182556020948501946001909201910161045b565b50848210156104995786840151600019600387901b60f8161c191681555b50505050600190811b01905550565b634e487b7160e01b600052601160045260246000fd5b818103818111156104d1576104d16104a8565b92915050565b808201808211156104d1576104d16104a8565b610912806104f96000396000f3fe608060405234801561001057600080fd5b50600436106100cf5760003560e01c80635b8bec551161008c5780639dc29fac116100665780639dc29fac146101ba578063a9059cbb146101cd578063dd62ed3e146101e0578063def114b61461021957600080fd5b80635b8bec551461015e57806370a082311461018957806395d89b41146101b257600080fd5b806306fdde03146100d4578063095ea7b3146100f257806318160ddd1461011557806323b872dd14610127578063313ce5671461013a57806340c10f1914610149575b600080fd5b6100dc61022c565b6040516100e99190610762565b60405180910390f35b6101056101003660046107cc565b6102be565b60405190151581526020016100e9565b6002545b6040519081526020016100e9565b6101056101353660046107f6565b6102d8565b604051601281526020016100e9565b61015c6101573660046107cc565b61031d565b005b600654610171906001600160a01b031681565b6040516001600160a01b0390911681526020016100e9565b610119610197366004610833565b6001600160a01b031660009081526020819052604090205490565b6100dc610356565b61015c6101c83660046107cc565b610365565b6101056101db3660046107cc565b61039a565b6101196101ee36600461084e565b6001600160a01b03918216600090815260016020908152604080832093909416825291909152205490565b600554610171906001600160a01b031681565b60606003805461023b90610881565b80601f016020809104026020016040519081016040528092919081815260200182805461026790610881565b80156102b45780601f10610289576101008083540402835291602001916102b4565b820191906000526020600020905b81548152906001019060200180831161029757829003601f168201915b5050505050905090565b6000336102cc8185856103d9565b60019150505b92915050565b6006546000906001600160a01b039081169085160361030a5760405163ec0511b360e01b815260040160405180910390fd5b6103158484846103eb565b949350505050565b6005546001600160a01b031633146103485760405163294c9fd360e01b815260040160405180910390fd5b610352828261040f565b5050565b60606004805461023b90610881565b6005546001600160a01b0316331461039057604051631e29ea2960e11b815260040160405180910390fd5b610352828261044a565b6006546000906001600160a01b031633036103c85760405163ec0511b360e01b815260040160405180910390fd5b6103d28383610480565b9392505050565b6103e6838383600161048e565b505050565b6000336103f9858285610564565b6104048585856105dd565b506001949350505050565b6001600160a01b03821661043e5760405163ec442f0560e01b8152600060048201526024015b60405180910390fd5b61035260008383610638565b6001600160a01b03821661047457604051634b637e8f60e11b815260006004820152602401610435565b61035282600083610638565b6000336102cc8185856105dd565b6001600160a01b0384166104b85760405163e602df0560e01b815260006004820152602401610435565b6001600160a01b0383166104e257604051634a1406b160e11b815260006004820152602401610435565b6001600160a01b038085166000908152600160209081526040808320938716835292905220829055801561055e57826001600160a01b0316846001600160a01b03167f8c5be1e5ebec7d5bd14f71427d1e84f3dd0314c0f7b2291e5b200ac8c7c3b9258460405161055591815260200190565b60405180910390a35b50505050565b6001600160a01b0383811660009081526001602090815260408083209386168352929052205460001981101561055e57818110156105ce57604051637dc7a0d960e11b81526001600160a01b03841660048201526024810182905260448101839052606401610435565b61055e8484848403600061048e565b6001600160a01b03831661060757604051634b637e8f60e11b815260006004820152602401610435565b6001600160a01b0382166106315760405163ec442f0560e01b815260006004820152602401610435565b6103e68383835b6001600160a01b03831661066357806002600082825461065891906108bb565b909155506106d59050565b6001600160a01b038316600090815260208190526040902054818110156106b65760405163391434e360e21b81526001600160a01b03851660048201526024810182905260448101839052606401610435565b6001600160a01b03841660009081526020819052604090209082900390555b6001600160a01b0382166106f157600280548290039055610710565b6001600160a01b03821660009081526020819052604090208054820190555b816001600160a01b0316836001600160a01b03167fddf252ad1be2c89b69c2b068fc378daa952ba7f163c4a11628f55a4df523b3ef8360405161075591815260200190565b60405180910390a3505050565b602081526000825180602084015260005b818110156107905760208186018101516040868401015201610773565b506000604082850101526040601f19601f83011684010191505092915050565b80356001600160a01b03811681146107c757600080fd5b919050565b600080604083850312156107df57600080fd5b6107e8836107b0565b946020939093013593505050565b60008060006060848603121561080b57600080fd5b610814846107b0565b9250610822602085016107b0565b929592945050506040919091013590565b60006020828403121561084557600080fd5b6103d2826107b0565b6000806040838503121561086157600080fd5b61086a836107b0565b9150610878602084016107b0565b90509250929050565b600181811c9082168061089557607f821691505b6020821081036108b557634e487b7160e01b600052602260045260246000fd5b50919050565b808201808211156102d257634e487b7160e01b600052601160045260246000fdfea2646970667358221220501bcdf7b4b33f568be5524935db154e8670745729d58ef107931b34254a1e8564736f6c634300081e0033",
  "linkReferences": {},
  "deployedLinkReferences": {}
}